:020000040800F2
:10000000B80A002049010008DF0D0008FD0A0008B9
:10001000DD0D0008FB0800082D1900080000000095
:10002000000000000000000000000000751400083F
:10003000FD080008000000002910000885150008D0
:100040006301000863010008630100086301000800
:1000500063010008630100086301000863010008F0
:1000600063010008630100086301000863010008E0
:1000700063010008630100086301000863010008D0
:1000800063010008630100086301000863010008C0
:1000900063010008630100086301000863010008B0
:1000A00063010008630100086301000863010008A0
:1000B0006301000863010008630100086301000890
:1000C0006301000863010008630100086301000880
:1000D0006301000863010008630100086301000870
:1000E0006301000863010008630100086301000860
:1000F0006301000863010008630100086301000850
:10010000630100086301000863010008630100083F
:10011000630100086301000863010008630100082F
:10012000630100086301000863010008630100081F
:10013000DFF810D000F0A4FB00480047792D00083C
:10014000AFF30080B80A0020064880470648004701
:10015000FEE7FEE7FEE7FEE7FEE7FEE7FEE7FEE777
:10016000FEE7FEE79515000831010008421C10F873
:10017000011B0029FBD1801A704730B504460020CE
:10018000034600E05B1C934203D2E05CCD5C401B65
:10019000F8D030BDF0B480EA0102D40F4200B2EBD7
:1001A000410F02D20246084611464A0042D0C30D12
:1001B000DDB2C1F3C752AD1A202D35DAC1F31601F5
:1001C00041F4000204B15242C5F1200602FA06F1E0
:1001D0002A411044B3EBD05F23D0C4B1012DA0EB72
:1001E000C35009DCF0BC4FF0004202EAC352DBB25C
:1001F00000F5000000F0A1BA400000F1807000EBB3
:10020000C350A0F1807040EAD170490009E049086C
:1002100041EAC071A0EBC35000F50000400800EBBC
:10022000C350F0BC00F080BA6142012202EB4101F0
:10023000001BF6E7F0BC704781F00041AAE780F0B0
:100240000040A7E730B480EA010202F0004530F038
:10025000004221F0004013D090B1C30DD40DC2F381
:100260001601C0F31600E41A41F4000140F4000244
:100270007D34914201D3641C00E04900002C02DA75
:1002800030BC002070474FF400000023914201D39E
:10029000891A034340084FEA4101F7D151B1914215
:1002A00002D14FF0004105E002D24FF0010101E020
:1002B0006FF0010103EBC450284430BC00F034BAA5
:1002C0002DE9FE4F804681EA0300C00F0C460090E6
:1002D00021F0004123F00045B8EB0200A94105D20E
:1002E0004046214690461C460B46024623F00040FD
:1002F000104347D0270DC7F30A00C3F30A510290F9
:10030000401A019040286BDAC3F3130040F4801BBD
:100310000098924620B10023D2EB030A63EB0B0B4B
:1003200001985946C0F14002504600F0CCF906460B
:100330000D4650465946019A00F0E4F910EB0800CA
:100340006141002487EA115284EAE7731A4340D0DE
:10035000009A62B3019A012A4FEA075215DC001B8A
:1003600061EB02014FF0004202EA0752CDE9004280
:10037000001C41F5801132462B4600F01BFA03B0F9
:10038000BDE8F08F40462146F9E7001B61EB020112
:10039000001C41F5801300185B412018A2F50017DE
:1003A00047EB030140EAD570B6196D4111E06D08C5
:1003B0004FEA360645EAC0754FEA0752001B61EB6B
:1003C0000201001C41F5801149084FEA3000001974
:1003D000514132462B4603B0BDE8F04F00F0DBB987
:1003E0000098012240000023D0EB020263EBE0738F
:1003F000009821464FEAE074B8EB000061EB04017D
:10040000E9E783F000435BE781F0004158E72DE91D
:10041000FE4F81EA030404F0004421F000410094FF
:100420004FF0000B23F0004350EA01045ED052EA83
:1004300003045BD0C3F30A54C1F30A552C44A4F25D
:10044000F3340194A0FB0254C1F3130141F4801171
:10045000C3F3130343F4801301FB024400FB034E78
:10046000840A970A44EA815447EA8357A4FB076841
:1004700002958D0A05FB07854FEA932C04FB0C546B
:100480002705029D4FEA065847EA1637B5EB0805DF
:100490006EEB070C870E920E47EA811742EA831231
:1004A000A7FB0201B6EB0B0164EB00042B0D43EA42
:1004B0000C335E1844EB1C50DA465146E7FB020150
:1004C000C5F313044FEA0B3343EA14534FEA0432E3
:1004D000019C43EA0603A4F10C040294009CCDE9BC
:1004E00000B400F067F903B0BDE8F08F00200146CA
:1004F000F9E72DE9F04D81EA030404F0004B21F007
:10050000004514464FF0000A23F0004150EA05026E
:1005100020D054EA01021DD0C5F30A570246C5F3A4
:100520001303C1F31300C1F30A5640F4801543F4DA
:100530008013A7EB0608101BD64608F2FD3873EBB4
:10054000050002D308F1010801E092185B41B8F1FF
:10055000000F03DA00200146BDE8F08D00204FF4C3
:100560008011064684460EE0171B73EB050705D382
:10057000121B63EB050306434CEA010C49084FEAE2
:10058000300092185B4150EA0107EDD152EA0300B6
:1005900012D082EA040083EA0501084305D0101B4B
:1005A000AB4106D20122002306E000224FF00043B7
:1005B00002E06FF0010253101AEB06004CEB0851F9
:1005C00010EB0A0041EB0B01BDE8F04D00F0E3B881
:1005D000C10F80EAE0700844CA079623002100F0AA
:1005E000ACB800F0004230F000400AD0C10D01F577
:1005F0006071C0F3160042EA0151C208400711437E
:10060000704700200146704730B5041E71F10004A8
:1006100004DB4FF00044404264EB0101141E73F10F
:10062000000405DB1C464FF00043524263EB040319
:10063000994208BF904230BD30B50B4601460020BC
:100640002022012409E021FA02F59D4205D303FA94
:1006500002F5491B04FA02F52844151EA2F1010215
:10066000F1DC30BD2DE9F05F0546002092469B4647
:1006700088460646814640241BE0284641464746B8
:10068000224600F02FF853465A46C01A914110D323
:1006900011461846224600F016F82D1A67EB01089D
:1006A0004F4622460120002100F00DF817EB00090B
:1006B0004E41201EA4F10104DFDC484631462A46A3
:1006C0004346BDE8F09F202A04DB203A00FA02F1FD
:1006D000002070479140C2F1200320FA03F3194330
:1006E00090407047202A04DB203A21FA02F00021D2
:1006F000704721FA02F3D040C2F120029140084332
:1007000019467047202A06DBCB17203A41FA02F03F
:1007100043EAE07306E041FA02F3D040C2F120025E
:1007200091400843194670470029A8BF7047401CF4
:10073000490008BF20F00100704710B4B0FA80FCF7
:1007400000FA0CF050EA010404BF10BC704749B134
:10075000CCF1200421FA04F411FA0CF118BF0121A4
:1007600021430843A3EB0C01CB1D4FEA00614FEA84
:10077000102042BF002010BC704700EBC350104453
:100780000029A4BF10BC7047401C490008BF20F0DE
:10079000010010BC704710B5141E73F1000408DA94
:1007A000401C41F1000192185B411A4301D120F035
:1007B000010010BD2DE9F04D92469B4611B1B1FAF2
:1007C00081F202E0B0FA80F220329046FFF77BFF20
:1007D00004460F4640EA0A0041EA0B0153465A46D6
:1007E000084313D0114653EA010019D0C8F1400262
:1007F0005046FFF777FF05460E465046594642469B
:10080000FFF761FF084305D0012004E02046394688
:10081000BDE8F08D0020054346EAE0762C433743DF
:100820000A986305E40AA0EB08000022FD0A44EAE6
:1008300047540A3002D500200146E9E701051019A6
:100840006941DDE9084500196941BDE8F04DA2E7BD
:10085000C1F30A52C1F3130140F2FF3341F4801196
:100860009A4202DA00200146704740F233439A422E
:10087000A2F2334202DC5242FFF734BFFFF723BF3C
:10088000064C074D06E0E06840F0010394E80700DD
:1008900098471034AC42F6D3FFF74EFC883A000874
:1008A000A83A000870B58C1810F8015B15F0070322
:1008B00001D110F8013B2A1106D110F8012B03E0F9
:1008C00010F8016B01F8016B5B1EF9D12B0705D401
:1008D0000023521E0DD401F8013BFAE710F8013B4A
:1008E000CB1A921C03E013F8015B01F8015B521E66
:1008F000F9D5A142D8D3002070BDFEE770470000B3
:100900000349024600200968114200D001207047C7
:1009100000040140F8B501217D2000F09FFB4FF657
:10092000FF70ADF8000000202E4D8DF803006946E1
:10093000284600F061F82C4F6946384600F05CF814
:100940002A4E6946304600F057F86946284800F0BC
:1009500053F86946274800F04FF80424ADF80040EA
:100960008DF803406946384600F046F849F6815054
:10097000ADF800008DF803406946304600F03CF8C1
:100980004FF4EC50ADF800008DF803406946304656
:1009900000F032F86003ADF800008DF803406946BE
:1009A000284600F029F80E20ADF8000010248DF83C
:1009B000034003278DF802706946284600F01CF8B2
:1009C0000820ADF800008DF803408DF802706946EC
:1009D000304600F011F80021012000F05FF80020FF
:1009E000F8BD000000080140000C0140001001406B
:1009F0000014014000180140F0B5CA78002502F04B
:100A00000F03D20601D58A7813430A784FF00F0EF0
:100A100012F0FF0F4FF001021CD004680F8802FA99
:100A200005F63740B74211D14FEA850C0EFA0CF7A4
:100A300024EA070703FA0CF43C43CF78282F02D0AE
:100A4000482F02D002E0466100E006616D1C082DCF
:100A5000E4D304600C88FF2C1ED944685FF00006C4
:100A600006F1080702FA07F50F882F40AF420FD1B1
:100A70004FEA860C0EFA0CF7BC4303FA0CF73C4322
:100A8000CF78282F00D14561CF78482F00D105615C
:100A9000761C082EE4D34460F0BD0000F0B5144C81
:100AA000002801DAE36900E06368420D120185B2B3
:100AB000C0F301579540C0F30346032F05D0C2028F
:100AC0000AD50322B240934307E023F070626368C3
:100AD00023F07063636002E0AB4343F0706201B1E6
:100AE0002A43002801DAE261F0BD6260F0BD000037
:100AF000000001404161704701617047FEE7002935
:100B0000018802D041F4806101E021F4806101801C
:100B1000704702460020938A128B43EA024323F077
:100B20007F42914300D101207047C94381827047C1
:100B30000029018802D041F0010101E021F001010A
:100B400001807047094910B588424FF0010101D179
:100B50004C0501E04FF48004204600F073FA204673
:100B6000BDE81040002100F06DBA000000540040C4
:100B70000029018802D041F4807101E021F48071E4
:100B8000018070470029018802D041F4007101E022
:100B900021F400710180704770B50446808886B0EA
:100BA0000D4620F03F06684600F070FA274902988B
:100BB000B0FBF1F189B20E43A680228822F0010237
:100BC0002280234B2A689A421CD85200B0FBF2F0D4
:100BD00080B2042800D20420491C2184A0832088EC
:100BE00040F00100208021884FF6F5300140A888B0
:100BF0006A89104308432080A889298908432081F5
:100C000006B070BDEB88A3F53F46FF3E0BD002EB6C
:100C1000C20303EB0212B0FBF2F080B240F480405A
:100C2000020506D007E002EB4202B0FBF2F080B210
:100C3000F6E740F001004FF4967251434FF47A7298
:100C4000B1FBF2F140F40040C6E7000040420F0063
:100C5000A086010008B508440090008808BD12B1C4
:100C600041F0010101E001F0FE01018270470182C3
:100C7000704700002DE9F8430D4699469046064618
:100C80000121FFF775FF324F642439463046FFF7E4
:100C900040FF10B9641EA4B2F7D2002229463046A4
:100CA000FFF7DDFF14B92B49002008602A4F6424A8
:100CB00039463046FFF72DFF10B9641EA4B2F7D2B3
:100CC00041463046FFF7D3FF234F6424BF1C39460B
:100CD0003046FFF71EFF10B9641EA4B2F7D2494692
:100CE0003046FFF7C4FF642439463046FFF711FF52
:100CF00010B9641EA4B2F7D201213046FFF742FFBB
:100D0000642401213046FFF733FF14213046FFF7FA
:100D1000A1FFADF80000002229463046FFF79FFFF3
:100D200014213046FFF796FF800702D4641EA4B258
:100D3000E7D20A493046FFF7F8FE01213046FFF7B7
:100D400021FF4F20401E80B2FCD20020BDE8F88376
:100D50000100030040010020820007000004001091
:100D600038B50121480500F061F90121092000F0A2
:100D700075F9C020ADF8000003208DF802001C209A
:100D80008DF8030069461148FFF736FE104C2046E7
:100D9000FFF7D8FE0F49002088804BF6FF70C8800F
:100DA0003020088120154881000188810A480860A8
:100DB00001212046FFF7BCFE06492046FFF7ECFE66
:100DC00001212046FFF79BFE38BD0000000C0140CA
:100DD0000054004068040020801A0600FEE77047B7
:100DE0000907090E002806DA00F00F0000F1E020E4
:100DF00080F8141D704700F1E02080F8001470475F
:100E000070B5002404F1B000C0B2002100F0F6F883
:100E10000021084600F0F2F80021102000F0EEF862
:100E200000250121002000F0E9F86D1CEDB2802DB5
:100E3000F7D3641CE4B2082CE4D370BD10B50021D4
:100E4000AE2000F0DBF80021084600F0D7F80021C2
:100E5000102000F0D3F80021402000F0CFF800214E
:100E6000812000F0CBF80021CF2000F0C7F800214E
:100E7000A12000F0C3F80021C82000F0BFF8002135
:100E8000A62000F0BBF80021A82000F0B7F8002150
:100E90003F2000F0B3F80021D32000F0AFF800218C
:100EA000084600F0ABF80021D52000F0A7F800219B
:100EB000802000F0A3F80021D92000F09FF8002145
:100EC000F12000F09BF80021DA2000F097F80021D3
:100ED000122000F093F80021DB2000F08FF80021B1
:100EE000402000F08BF80021202000F087F800213E
:100EF000022000F083F800218D2000F07FF800210F
:100F0000142000F07BF80021A42000F077F80021E5
:100F1000A62000F073F80021AF2000F06FF8002148
:100F2000AF2000F06BF8FFF76BFF0021BDE8104029
:100F30000846AFF3008010B50446B031C8B20021B6
:100F400000F05CF8102040EA1410002100F056F880
:100F500004F00F00BDE8104040F00100002100F057
:100F60004DB800002DE9F041203A00240D4680469E
:100F7000D7B27F2803D900208D1C8046EDB22946C8
:100F8000FFF7D9FF0F4E00BF04EB07100121305CC3
:100F900000F034F8641CE4B2082CF5D36D1CE9B2FF
:100FA0004046FFF7C8FF002404EB0710304401213E
:100FB000007A00F023F8641CE4B2082CF4D3BDE8F6
:100FC000F0810000E83300082DE9F04117460E4695
:100FD000044600250CE031462046FFF7C3FF0834E5
:100FE000E4B2782C02D90024B61CF6B26D1CEDB226
:100FF0007A5D002AEFD1BDE8F0810000084A30B4E4
:101000001268012A0AD1074C034609B1402200E0C8
:101010000022204630BC7821FFF72CBE30BC704740
:10102000400100200054004070470000044A00299D
:10103000D16901D0014300E08143D16170470000D4
:1010400000100240044A0029116901D0014300E068
:10105000814311617047000000100240044A0029DA
:10106000916901D0014300E0814391617047000024
:1010700000100240044A0029D16801D0014300E079
:101080008143D160704700000010024030B5224A11
:101090005168224B11F00C0103D0042903D0082918
:1010A00003D0036016E01E4913E05168536801F451
:1010B00070114FF0020413F4803F04EB914104D00F
:1010C00053689B0303D5154B02E0164B00E0144B0D
:1010D0005943016051680F2303EA1111124B5C5C04
:1010E0000168E14041605468072505EA14241C5D4D
:1010F00021FA04F48460546805EAD4241B5DD940C5
:10110000C1605268032303EA9232074B1B1F9A5CAB
:10111000B1FBF2F1016130BD0010024000127A0013
:101120000024F40000093D00D20000202DE9F04128
:10113000DFF8DC8086B0404600F0DAF80020ADF839
:1011400004004FF48271ADF80610ADF808000221DA
:10115000ADF80A100121ADF80C104902ADF80E10DF
:101160003021ADF81010ADF812000720ADF81400D2
:1011700001A9404600F0EDF84FF42040ADF8000022
:1011800018208DF80300234F03248DF80240694690
:101190003846FFF731FC4FF48040ADF8000048209E
:1011A0008DF8030069463846FFF726FCBE14ADF8FB
:1011B000006010258DF803508DF8024069463846CE
:1011C000FFF71AFC0021404600F0DFF801214046FD
:1011D00000F02CF831463846FFF78EFCE801ADF8F8
:1011E00000008DF803508DF8024069463846FFF73D
:1011F00003FCA801ADF800008DF803508DF8024003
:1012000069463846FFF7F8FB06B00020BDE8F081DC
:1012100000380040000C0140034A118821F03801D9
:10122000014311807047000000300140002901880F
:1012300002D041F0400101E021F0400101807047FF
:10124000F0B5294E87B0304600F052F80021ADF8D5
:1012500000104FF48270ADF80200ADF80810701560
:10126000ADF80A001024ADF80410ADF80C400720CA
:10127000ADF80610ADF80E10ADF810006946304616
:1012800000F067F8A020ADF8140018208DF81700C2
:10129000164F03258DF8165005A93846FFF7ACFB0D
:1012A0004020ADF8140048208DF8170005A93846F5
:1012B000FFF7A2FBADF814408DF817408DF81650DB
:1012C00005A93846FFF798FB0021304600F05DF88D
:1012D00001213046FFF7AAFF10213846FFF70CFC2A
:1012E00007B00020F0BD00000030014000080140C0
:1012F000114910B588420AD1841401212046FFF714
:10130000B9FE2046BDE810400021FFF7B3BE0B49EF
:10131000884202D10121041404E0094988420AD11B
:101320000121C4132046FFF78DFE2046BDE8104082
:101330000021FFF787BE10BD00300140003800409B
:10134000003C00400246002012890A4200D00120E1
:10135000704730B502884C8802F441530A88CD8822
:1013600022438C882C4322430C8922434C892243FC
:101370008C892243CC8922431A430280828B22F437
:1013800000628283098A018230BD0029818802D0EF
:1013900041F0040101E021F0040181807047000068
:1013A000F8B50E46044625492448083150F8240073
:1013B00051F82410084340F001000121FFF74EFED0
:1013C0001E4808389CB350F824000121FFF72EFE78
:1013D00018208DF8030019486946183830F81400B1
:1013E000ADF8000003208DF80200154850F82400E5
:1013F000FFF702FB04208DF80300104869461438FB
:1014000030F81400ADF800000D48083050F8240002
:10141000FFF7F2FA0A4D3146083D55F8240000F076
:101420001FFA55F82400012100F009FAF8BDFFE782
:1014300000680121FFF712FECAE7000058330008D8
:10144000000100200349044A31F8101052F820002E
:101450004161704748330008100100200349044AE5
:1014600031F8101052F8200001617047483300082D
:1014700010010020704700000020034902460A5472
:10148000401C0228FBDB70470A0000200CB500213D
:10149000264801910091026842F4803202604FF4C4
:1014A000A063026802F400320092019A521C019279
:1014B000009A12B9019A9A42F3D10268920333D585
:1014C000012100911A490A6842F010020A600A6874
:1014D00022F003020A600A6842F002020A604168D0
:1014E000416041684160416841F480614160416808
:1014F00021F47C114160416841F4F81141600168B8
:1015000041F08071016001688901FCD5416821F0DA
:1015100003014160416841F0020141604168C1F34B
:1015200081010229FAD10CBD00910CBD00100240CE
:101530000020024001484078704700000A00002067
:1015400070B50F484FF47A710068B0FBF1F0B0F15C
:10155000807F14D220F07F404FF0E024401E606175
:1015600065170F212846FFF73BFC0020A0610720EC
:10157000206105212846FFF733FC002070BDFEE7FF
:10158000E400002002480168491C01607047000027
:10159000000000200F4810B5016841F00101016012
:1015A00041680D4A1140416001680C4A11400160D8
:1015B000016821F480210160416821F4FE0141604D
:1015C0004FF41F018160FFF761FF05494FF0006094
:1015D000086010BD001002400000FFF8FFFFF6FE9B
:1015E00008ED00E02DE9FC5FDFF838B200268E4FF1
:1015F0004FF00F0AB146ABF15208962001F03DFAC8
:1016000040F68C2001F050FA98F800108BF8021088
:1016100044468BF803A0002282490C2001F015FB00
:1016200000210C2001F022FB022001F06FFA0020C3
:1016300001F09AF900210F2001F04DF93842606065
:10164000F8D002217948FFF757FAA088A046400455
:101650007DD54FF4814200210F2001F0C8FA00210E
:10166000102001F038F900F07F01182903D800227A
:101670006F4801F064F96E48C1780F2968D1694953
:1016800080F8039080F802900A220C31FEF775FD75
:1016900000287DD100252C46684601F05FF9042022
:1016A0006A46240244EA15642B02155C1D43401E61
:1016B000F7D5C8E9085400252C46104601F048F932
:1016C00004206946240244EA15642A020D5C15438D
:1016D000401EF7D54FF02F60C8E90A54281844F18E
:1016E0000001040A44EA0164204601F065F924F08F
:1016F0000100010E0202C8E90C214A48D8E908237A
:101700004C46253001F004FB4648D8E90A2329302D
:1017100001F0FEFA4348D8E90C232D3001F0F8FA25
:10172000404898F800101B300022817080F803A018
:101730000146182001F089FA0021182001F096FADC
:10174000032001F0E3F9454600210F2001E057E0B6
:1017500060E001F0C0F838426860F5D0A888400425
:101760004ED54FF4814200210F2001F040FA0021B4
:10177000102001F0B0F800F07F01182903D80022F2
:101780002B4801F0DCF82A4DE8780F2842D100E020
:1017900031E02449EC70A146AC700A220F3928468A
:1017A000FEF7EBFC38BBA87A4FF47A714843E97A2C
:1017B00001EB810100EB4101287B603505F10C0450
:1017C00055F82020114445F8201054F82010491CE9
:1017D00044F820105FF0000054F8201005290BDBBE
:1017E00000F004FE0020494644F8201045F820107F
:1017F000401C0328F8DB08E0401C0328ECDB04E075
:101800000C4A00210F2001F0F2F998F80010491C51
:1018100088F80010761CF6B2032EFFF4EEAEBDE899
:10182000FC9F00005A00002000D02724000801403F
:10183000F003002000902724C9430180704700294D
:10184000818902D041F4005101E021F400518181ED
:1018500070470246002012880A4200D001207047DB
:1018600030B50446008A85B00D464CF6FF7108403D
:10187000E98801432182A1894EF6F3100140A8882E
:101880002A8910436A890A431043A081A08A4FF62F
:10189000FF410840A9890143A1826846FFF7F6FB92
:1018A0001948844201D1039800E00298A1890904F3
:1018B00000EBC00101EB0010296801D5490000E0F0
:1018C0008900B0FBF1F06422B0FBF2F109010B09D1
:1018D0006FF018056B4300EB8300A3891D044FF0E4
:1018E000320306D503EBC000B0FBF2F000F00700B6
:1018F00005E003EB0010B0FBF2F000F00F0008432E
:10190000208105B030BD000000380140C1F308015E
:101910008180704770B50D460646002403E0305DB7
:1019200001F056FC641CAC42F9DB70BDFEE7000020
:101930000FB4054B10B503A9044A029800F0A4F9AE
:1019400010BC5DF814FB0000292D000804030020E2
:101950000FB4084B10B504A902AA039800F094F93B
:10196000044602A9002000F012FD204610BC5DF8DC
:1019700014FB00008F23000802E008C8121F08C1F2
:10198000002AFAD170477047002001E001C1121F00
:10199000002AFBD1704738B504466D208DF8000051
:1019A0006B46012240F606012E2001F02FF941F688
:1019B000060114B140F2076201E041F207622E20F5
:1019C00001F008F938BD38B504466B460222002103
:1019D000362000F097FF0E2C2CD2DFE804F00F0722
:1019E000152B2B2B2B1D392B2B44494E00208DF80A
:1019F00000009DF8010000F0FE0019E09DF80000D5
:101A000000F0FC00401C04E09DF8000000F0FC0029
:101A1000801C8DF800000DE09DF8000000F0B30080
:101A200040F048008DF800009DF8010040F0800073
:101A30008DF801006B4601220021362001F0E6F806
:101A40000122114636200DF1010301F0DFF838BD07
:101A50009DF8000000F0B3008DF800009DF8010033
:101A600000F07F00E4E79DF8010040F00200DFE7AE
:101A70009DF8010000F0FD00DAE79DF8000000F09D
:101A8000CF0040F02000C4E708B503208DF8010026
:101A900001208DF800006B4602220021362001F063
:101AA000B5F84FF4004206212D2001F093F80120F3
:101AB00000F07AFC0120FFF786FF08BD08B5010A97
:101AC0008DF801108DF800006B46022204212D20B4
:101AD00001F09CF803208DF800006B4601220621DE
:101AE0002D2001F093F800208DF800006B460122B4
:101AF00006212D2001F08AF80A212D2000F0EBFEAE
:101B000008BD00002DE9FF5F82B00021DDE904304F
:101B1000020DDDF840B0034318D044F61050A2F295
:101B2000FF3242431514119801281FD0A5EB0B007A
:101B3000401C5FEA000A4FF000064E4FDFF8389174
:101B4000B046504615D5CAF1000413E0119801249F
:101B50004AA3012801D16FEA0B010298119AC0E94A
:101B60000031C0E9024206B0BDE8F09FCBF10000B1
:101B7000DFE704460021404A491842EB0450CDE912
:101B8000001012E0E00707D032463B464046494687
:101B9000FEF73DFC8046894632463B4610461946D4
:101BA000FEF735FC06460F466410002CEAD1DDE94D
:101BB0000401DDE90023BAF1000F06DAFEF727FC85
:101BC00042464B46FEF723FC05E0FEF792FC4246F8
:101BD0004B46FEF78EFC04460E460022284BFEF7CD
:101BE00013FD03D84FF0FF30014607E00022254BDC
:101BF00020463146FEF764FBFEF72AFE102409E07A
:101C0000002C0ADB0A220023FEF72CFD039B303256
:101C10001A55641E50EA0102F2D1641C039AC4F101
:101C200011031444119A012A03D0012208430DD153
:101C30000AE0084304D000204FF0110B119072E726
:101C4000A3EB0B056D1E0DE05B4504DD4FF00002BC
:101C500005F1010504E003DA4FF00002A5F10105EA
:101C6000002AECD002981199C0E90231C0E9004580
:101C700079E70000000014400000F03F3000000051
:101C80000000F0430000E03F2DE9FF4F95B09A4679
:101C9000884606460025EEE1252877D10024274610
:101CA000F94A0121039400E0044316F8013F203B68
:101CB00001FA03F01042F7D130782A2811D06FF0E2
:101CC0002F033078A0F13002092A16D8039A44F085
:101CD000020402EB820203EB42021044761C0390E2
:101CE000EFE758F8042B0392002A03DA504244F439
:101CF0000054039044F00204761C30782E2816D14C
:101D000016F8010F44F004042A280DD06FF02F02BA
:101D10003078A0F13003092B09D807EB870302EBD9
:101D20004303C718761CF3E758F8047B761C307819
:101D30006C280FD006DC4C2817D068280DD06A28F4
:101D400014D104E0742810D07A280FD10DE044F4A7
:101D500000140AE044F4801401E044F44014727862
:101D6000824202D104F58014761C761C30786628F5
:101D70000BD013DC582877D009DC002875D0452813
:101D8000F6D04628F4D047281AD193E118E063280A
:101D900035D0642879D0652812D18BE1702873D0B2
:101DA00008DC6728F1D069286FD06E280DD06F2825
:101DB00006D1ACE073282CD0752874D0782853D085
:101DC0005246179990476D1C54E1C4F30250022803
:101DD00009D003280DD0D8F8001004280DD00D60CC
:101DE00008F1040846E1D8F80010EA17C1E90052EA
:101DF000F6E7D8F800100D80F2E70D70F0E718F85C
:101E0000041B8DF8001000208DF80100EB46012026
:101E100003E058F804BB4FF0FF3061074FF00001BA
:101E200002D40DE009F101018946B9420FDA81457A
:101E3000F8DB1BF809100029F4D108E009F10101D1
:101E400089468142FADB1BF809100029F6D1039874
:101E50005346A0EB090721463846179A00F080FA4E
:101E6000284400EB090507E044E008E10DE01BF819
:101E7000010B524617999047B9F10109F7D2534621
:101E800021463846179AF2E039E00A21C4F302529B
:101E90004FF0000B0091022A06D058F8040BC1172E
:101EA000032A09D00AE023E008F1070020F0070226
:101EB000F2E80201904605E000B2C117042A01D100
:101EC00040B2C117002906DA0A460021404261EB00
:101ED00002012D2202E0220504D52B228DF80420D8
:101EE000012203E0E20701D02022F7E7914657E004
:101EF0000A2100E010214FF0000B00910BE01021AF
:101F00004FF0000B44F004040827009103E0082080
:101F10004FF0000B0090C4F30252022A05D058F88B
:101F2000040B0021032A08D008E008F1070020F084
:101F30000702F2E80201904603E080B2042A00D1D1
:101F4000C0B24FF0000922072AD53278702A07D094
:101F5000DDF800C08CF0100C5CEA0B0C05D00EE034
:101F600040228DF80420012208E050EA010306D047
:101F700030238DF804308DF8052002229146009B15
:101F800083F0080353EA0B030AD150EA010201D19E
:101F9000620705D530228DF804204FF001097F1E1D
:101FA0003278582A04D039A20C920CAA02920BE083
:101FB0003BA2F9E75B46009AFEF754FB0C9B9B5C47
:101FC000029A521E0292137050EA0102F2D1029854
:101FD00004A9081A00F1200B600702D524F480340C
:101FE00000E001275F4502DDA7EB0B0000E00020C9
:101FF00000EB0B01009003984944401A0390E00362
:1020000006D453462146179A039800F0A9F90544CF
:10201000002706E001A85246C05D179990476D1C45
:102020007F1C4F45F6DBE0030CD553462146179A3B
:10203000039800F095F9054404E0302052461799C2
:1020400090476D1C0099481E00900029F5DC08E0BF
:102050000298029952460078491C029117999047BC
:102060006D1CBBF10001ABF1010BF1DC5BE100F099
:1020700065F90544761C307800287FF40DAE19B060
:102080002846BDE8F08F00000928010030313233C6
:1020900034353637383961626364656600000000A4
:1020A000303132333435363738394142434445468E
:1020B00000000000600700D4062708F1070020F0A8
:1020C0000700F0E80223804603F0004C5FEA0C00B2
:1020D00001D097A009E0200501D596A005E0E00712
:1020E00001D095A001E0AFF24C001390307823F0BE
:1020F000004365280CD006DC452809D046281DD0B1
:1021000047287FD13BE0662818D067287AD136E08F
:102110000021112F01DB112000E0781CCDE9000126
:1021200004A90CA8FFF7EEFCDDE90D010C9A4FF0B5
:10213000000B07F10109109200914EE04FF00040B2
:102140000097CDE9011004A90CA8FFF7DBFCDDE93D
:102150000D020C9B0F994FF0000B914610930092CB
:1021600011B9791C00EB0109B7EB090003D4C0F1E8
:10217000FF3B07F10109A9EB0700019042E0012FA5
:1021800000DA01270021112F01DD112000E038467F
:10219000CDE9000104A90CA8FFF7B4FCDDE90D01AD
:1021A0000C9A00914FF0000BB946109221070FD402
:1021B000009A4A4503DA914601E0A9F10109B9F113
:1021C000010F05DD109AA9F10101515C3029F4D00D
:1021D000B84202DA10F1040F03DA0121CDE901104F
:1021E00010E0002803DC8344A9EB000102E0411C5D
:1021F000494500DD8946A0EB0B00401C01904FF0E3
:1022000000400290200705D40198484502DB4FF0BA
:10221000FF30019000208DF84B0002980DF14B0724
:10222000B0F1004F25D002200C902B200D90029889
:1022300000280CDA404202902D200D9007E00A2180
:102240000298FEF7F9F93031029007F8011D0C9958
:10225000481E0C900029F2DC02980028EFD1791E6C
:102260000D980870307800F0200040F0450007F825
:10227000020D11A8C01BC01D02901398007800B178
:10228000012000EB0901019801EBE0710298014483
:102290000398401A401E0390E00306D4534621469B
:1022A000179A039800F05CF805441398007818B169
:1022B0005246179990476D1CE00323D5534621469B
:1022C000179A039800F04CF805441BE0BBF1000F8F
:1022D00007DB0098584504DD1098179910F80B009B
:1022E00001E0179930205246904701980BF1010BFD
:1022F000401E05F10105019004D12E205246179988
:1023000090476D1CB9F10001A9F10109DEDC05E07F
:1023100017F8010B5246179990476D1C0299481EF9
:1023200002900029F4DC53462146179A03989EE652
:102330002D0000002B000000200000002DE9F041DE
:10234000044600251E461746880404D405E0394695
:102350002020B0476D1C641EF9D52846BDE8F081E9
:102360002DE9F041044600251E469046C80301D5DC
:10237000302700E02027880404D505E04146384690
:10238000B0476D1C641EF9D52846BDE8F0810A6887
:10239000531C0B6010707047C52101704FF01F3146
:1023A000416000F0C7B9000010B5044600F00AFF14
:1023B00004EB000400F006FF001B0028FADD10BD4E
:1023C000002805D04FF0E0214FF40000C1F80001D3
:1023D000704710B51720FEF793FA002805D04FF08C
:1023E000E0224FF40001C2F8801110BD2DE9F04346
:1023F0003E4C4FF000098DB06078C8464F4660B93A
:102400003B484FF07C523B4B0092CDE9013000211C
:10241000394800F09FFC01206070374D0024A03542
:10242000A5F10C0655F82400002808DD56F8241004
:1024300091FBF0F0214600F03FFC46F82400641CBC
:10244000032CEFDB28682D4C00280CDD3068FEF7EC
:10245000BFF82146FDF7F6FE244A27490C323C39E5
:1024600000F05AFE8146686800280CDD7068FEF7AF
:10247000AFF82146FDF7E6FE1C4A1F491032283905
:1024800000F04AFE8046A86800280CDDB068FEF720
:102490009FF82146FDF7D6FE144A17491432143925
:1024A00000F03AFE07463846FEF79BF806460F4610
:1024B0004046FEF796F804460D464846FEF791F86A
:1024C0008DE8F0000B4602460DA104A8FFF740FA84
:1024D00004A8FDF74BFEC1B204A8FFF71BFAFA20CF
:1024E000FFF762FF0DB0BDE8F08300000800002098
:1024F000000072420000EE42BC03002000002041B8
:1025000064303A25332E32662C64313A25332E322C
:10251000662C64323A25332E32660A002DE9F84FD4
:1025200004460578407978494FF00009C84631F8EB
:10253000107061787548491ECEB20163042D75D0C4
:10254000072D73D000218A46217801736F49E27903
:102550008969002A6CD021F480018161217A41735C
:10256000217A4FF44033826903EA01410A438346EA
:1025700082610021042000F03AFB3A4642F6040151
:102580002E2000F027FB3046FFF705FA604F614927
:102590000522785D00EB8000431807212B2000F016
:1025A00035FB5D49012201EB0A030B21282000F0D5
:1025B0002DFB785D594951F820200C21282000F08E
:1025C00016FBE079564901EB8000A17930F8112023
:1025D0000221272000F0FEFA5248042130F816208C
:1025E000272000F0F7FAE07938B3A07804282AD041
:1025F00028208DF8000020220621272000F0EAFA8A
:102600006B4601222621272000F000FB4648E17896
:1026100000EB061050F821200821272000F0E7FAEF
:10262000B4F80900A0B117E000E001E001218AE759
:1026300041F48001FF08816190E764220621272090
:1026400000F0C8FAE2E710208DF800000246D3E758
:1026500041F24100A4F80900B4F809202021272004
:1026600000F0B8FA314F0C2123203A6800F0BFFA8D
:1026700007EB460004218288232000F0ABFAA07902
:1026800058B1E0792A49012243180021212000F0A5
:10269000BDFA4FF003094FF0010805F00F002907BC
:1026A00040EA116061784FF4402202EA8141084318
:1026B000920002EA095108434FF4003202EA48410D
:1026C000084321794FF0F86202EA815108436179A9
:1026D00040EAC16200211F2000F089FAA0786178E9
:1026E0004FF4004308430204CBF81020E17908209E
:1026F00043EA41310A430021CBF8102000F077FA79
:102700000020BDE8F88F0000543A0008780400204B
:10271000D8390008F8390008163A0008E0390008EE
:10272000243A0008303A0008343A0008183A000801
:10273000203A000810B50446034601220B212A2046
:1027400000F064FA62680021BDE810401E2000F02D
:102750004EBA10B504460421362000F0BCF814B17E
:1027600040F4006201E020F400620421BDE8104062
:10277000362000F03CBA000038B540208DF800004B
:1027800000210E2000F0A7F80446FFF722FE0546C0
:10279000002211460E2000F02AFA6B460122002189
:1027A0000D2000F033FA0A4A00210F2000F01FFA32
:1027B00000F0F6F9224600210E2000F018FA284613
:1027C000FFF7FEFD0349002081F82C0038BD000012
:1027D000F8FF2724780400207CB50546324C0420FD
:1027E0008DF8000000216175216384F8251084F8BC
:1027F0002C10A1836163A16300F080F82B49206055
:10280000884201D088177CBD0020FFF7DCF86B46BA
:1028100001220021242000F0F9F91E20FFF74EF9D3
:1028200086B2300AA0730420FFF748F910F0FF0FBA
:102830000CD002208DF8040001AB012212212D20C2
:1028400000F0E4F9A08B40F48050A0830620FFF74D
:1028500035F960600720FFF731F9A06016F01F001E
:10286000207501D110202075C0B200F00DFAE807E4
:1028700006D0FFF709F9A08B40F40060A08309E0BF
:102880000521362000F014F820F4007205213620CE
:1028900000F0A0F90120FFF796F80021042000F0D5
:1028A0001AF8A06100207CBD780400203001CADE47
:1028B00038B54FF6FF7489B280B26B46022200F041
:1028C00021F830B99DF800009DF8011000EB0120BF
:1028D00084B2204638BD38B54FF0FF3489B280B29B
:1028E0006B46042200F00EF830B903216846425CC2
:1028F000491E02EB0424FAD5204638BD00210846C3
:10290000FFF7E9BF08B551B140F040008DF8000075
:10291000C8B27F2907D88DF8010002200BE08DF89E
:102920000000012007E040F080008DF80100C80998
:102930008DF802000320694600F050FC08BD30B459
:1029400014460A462146034630BC1120FFF7DABF81
:102950000346052200211520FFF7D4BF03460522B8
:1029600000211720FFF7CEBF38B5054600208DF8AF
:10297000000000F015F94FF4807422460DB14FF4B9
:10298000407200210D2000F025F99DB16B46012217
:1029900003210F20FFF7B6FF9DF80000000709D5BF
:1029A000FFF7EAFE224600210D2000F013F94FF058
:1029B000FF3038BD002038BD024601210A2000F05A
:1029C00016B938B50446C0076B464FF002024FF007
:1029D00000014FF026002DD0FFF794FF9DF8010075
:1029E000012220F03C0040F014008DF80100114657
:1029F00026200DF1010300F009F96B4601220221A6
:102A00003620FFF77FFF9DF800006B4640F0840002
:102A10008DF8000001220221362000F0F7F8102086
:102A20008DF8000001208DF80100022228216B465C
:102A300036200BE0FFF766FF9DF801006B4620F0A3
:102A400014008DF8010002220021262000F0DEF89B
:102A5000A00711D50F208DF800006B4601222A2116
:102A6000362000F0D3F800208DF800006B460122DC
:102A70002A21362000F0CAF838BD10B504460021DE
:102A80001A20FFF728FFC4F313026FF31300024369
:102A90000021BDE810401A2000F0A9B8024641F616
:102AA00004012E2000F096B838B505466B46012289
:102AB00003210420FFF726FF104C75B12A460021A0
:102AC0000C2000F087F89DF8000040F010008DF811
:102AD0000000A06940F0805008E09DF8000020F060
:102AE00010008DF80000A06920F08050A0616B46B6
:102AF00001220321042000F089F838BD7804002069
:102B000002460021182000F065B80000F8B5002446
:102B10000546224F26468DF8004080070BD58020C1
:102B20008DF800006B46012200210D2000F06EF8A8
:102B3000012087F82C00E8079DF8000021D040F024
:102B400006008DF800006B46012200210D2000F0E8
:102B50005DF803210F20FFF7ABFE10F4816F1AD050
:102B600040208DF800006B46012200210D2000F06E
:102B70004DF80020FFF7EDFD87F82C604FF0FF3493
:102B800009E040F002008DF800006B4601220021B0
:102B90000D2000F03BF82046F8BD0000780400202E
:102BA0001CB56B46012203210F20FFF7ABFE9DF8F9
:102BB000000000F0800100F04000B1EB400F08D0B1
:102BC00001208DF80400024601AB03210D2000F026
:102BD0001DF81CBD08B589B28DF80020120A8DF8C9
:102BE000012080B26B46022200F010F808BD38B513
:102BF00000236C46E254120A5B1C042BFADB89B2F8
:102C000080B22346042200F001F838BD08B551B166
:102C100040F0C0008DF80000C8B27F2909D88DF8B7
:102C2000010002200DE040F080008DF8000001203E
:102C300007E040F080008DF80100C8098DF802001F
:102C40000320694600F04AFB08BD10B51446024453
:102C5000B2F5806F02D94FF0FF3010BD0B46821ED7
:102C600021460920FFF7D2FF002010BD054A10B50C
:102C7000126940EA8150024300210820FFF7B7FFA4
:102C8000002010BD7804002038B504466B460122B0
:102C90000E212B20FFF736FE9DF8000004F01F01E7
:102CA00020F01F0001438DF800106B4601220E2119
:102CB0002B20FFF7ABFF38BDF0B50022134D0527E1
:102CC00001EB8104134605EB8404002814DD643510
:102CD00055F8216044F82600761C45F82160052E41
:102CE00002D1002045F8210054F82200521CD2B233
:102CF0000344052AF8D306E054F82200521CD2B24D
:102D00000344052AF8D393FBF7F0F0BD0803002035
:102D100010B500214254120A42EA03621B0A491C00
:102D20000429F7DB10BD000070B5094C05464021B1
:102D30002046FEF781FDE9B22046FEF7E7FD40217F
:102D40002046FEF786FD0028F9D0284670BD000019
:102D50000038014070B50DF1100C9CE8700080E85F
:102D60007E00002180F83010024AC0E90821C0E945
:102D70000A1270BD0000C8420EB500252C4600F0B6
:102D8000F3F9CAA0FEF7D4FD00F066FA00F08DFA60
:102D90000120FFF721FD401C3DD000F083FAC74819
:102DA000FFF7BCFB01A8FFF7F7FA0120FFF709FEC8
:102DB00048F2B600FFF772FE0020FFF7A1FEC0A0A8
:102DC000FEF7B6FDC448C34AC149C0E90012C44A6F
:102DD000C249C0E902120021C0E90411C14AC0E998
:102DE0000612C0E90811C0E90A11C0E90C11C0E9D6
:102DF0000E11C0E910119620FFF73FFE40F68C201F
:102E0000FFF752FEFEF738FBAC4EDFF8DCB2DFF81E
:102E1000DC82383E17E0B6A0FEF78AFD0021BAA298
:102E20000846FEF7D1F80020FEF718FB6420FFF7F4
:102E3000BBFA0020FEF706FB6420FFF7B5FAF2E7C5
:102E4000BAF1000F0CD002215F465846FDF752FE42
:102E500004213846FDF74EFEFEF7C4FB4FF0000A92
:102E6000FEF768FB00285AD1DFF85092012509F1DE
:102E70005A090027914989F8027089F80350002205
:102E80005A310D20FFF7E1FE00210D20FFF7EEFE85
:102E90000220FFF73BFE00210F20FFF71CFD10EA88
:102EA000080F7060F7D0B08840042AD54FF48142F3
:102EB00000210F20FFF79BFE00211020FFF70BFDE4
:102EC00000F07F01182904DC834800221838FFF73E
:102ED00036FD814818388770C178A94216D1009113
:102EE0007649C7700A227431FDF747F970B9734803
:102EF000009936380122425404215846FDF7FCFD62
:102F000004E0844A00210F20FFF771FE6D1CEDB232
:102F1000022DAFD301256D1CEDB2022DFBD3ECBB0E
:102F2000FEF708FB00287CD0644F4FF00009363FC5
:102F3000012587F80090785D012873D19620FFF76E
:102F40009CFD40F68C20FFF7AFFD5C480022673007
:102F5000014680F80290C5700D20FFF776FE002133
:102F60000D20FFF783FE0220FFF7D0FD00210F2088
:102F7000FFF7B1FC10EA080F7060F7D0B08840048A
:102F800068D502215846FDF7B7FD4FF48142002174
:102F90000F20FFF72CFE0021102000E023E0FFF7B8
:102FA0009AFC00F07F01182904DC4B4800221838F5
:102FB000FFF7C5FC48484946183880F80290C278A7
:102FC000AA424ED1C17008215846FDF795FD3B49F4
:102FD00041480A2281311838FDF7CFF810BB641C34
:102FE00014F0FF045BD043F2BC40FFF75DFD00200E
:102FF000FFF7BAFC474600210F20FFF76CFC384270
:103000007060F8D0B08840043DD54FF48042002174
:103010000F20FFF7ECFD00211020FFF75CFC40B211
:1030200001E03CE01DE0B0F5806F05DC81B22A488C
:1030300000221838FFF783FC2748002718381F495B
:10304000877090F80390C7700A224D31FDF795F80C
:1030500068B124E007F805902E4A00210F20FFF701
:10306000C6FD6D1CEDB2022DFFF465AF17E01349EC
:10307000363911F80900012811D101F8097074B12D
:10308000641EE4B20BE02CB10C48641E00213638FB
:10309000E4B241551F4A00210F20FFF7A8FDFEF7BB
:1030A00049FA00287FF4CCAE0024CCE66570696351
:1030B0002064776D31303030210D0A00400000204F
:1030C000696E69742070617373210D0A000000003D
:1030D000B81E85EB51B8BE3F08040020C3F5285C3C
:1030E0008FC2D53F0000D03F0008014000D0272408
:1030F00064776D3130303020696E697420666169A3
:103100006C210D0A00000000494E495420464149F7
:103110004C000000009027242DE9F0410F46116873
:10312000052391FBF3F403FB1411002647F821005B
:103130001468641C1460052C01DA002509E00524DC
:103140005FF00005304657F82510FDF723F80646D6
:103150006D1CA542F6DB2046FDF73AFA01463046E3
:10316000BDE8F041FDF76EB810B501217D20FDF7F7
:1031700075FF01210803FDF771FF01218803FDF7A9
:1031800055FFFDF7C7FBFEF7DBF9FEF759F8FDF732
:10319000CDFF0B4C4FF400612046FDF7ABFC211531
:1031A0002046FDF7A7FC0A20FFF7FEF8FDF7D8FD43
:1031B000FDF744FEFDF724FEBDE8104000F078B8AE
:1031C000000C01400148006870470000000000202A
:1031D0000149FFF7A9BD0000040300202DE9F05FBD
:1031E0001D4616468A4607460024FFF7F2F818499E
:1031F0004FF010098346C1F80090DFF858800DE0C9
:103200001AF80410A8F80C1001214046FEF79AF8AD
:103210000028F9D0B8F80C002870641CBC42EFDB21
:1032200000200246414606E08A810B89DB07FCD07C
:103230008B892B54401CB042F6D30549091FC1F8B5
:1032400000905846FFF7BCF80020BDE8F09F000052
:103250001408014000300140F8B54FF48054ADF837
:10326000004010208DF803000D4E03258DF802500C
:1032700069463046FDF7C0FB21463046FDF73AFC73
:10328000ADF8004000208DF803008DF8025069462B
:103290003046FDF7B1FB0220FFF786F8F8BD0000CD
:1032A000000C01400820FDF7B7BF2020FDF7B4BF98
:1032B0001FB54FF4E13000900020ADF80400ADF8E8
:1032C0000600ADF80800ADF80C000C20ADF80A00BF
:1032D00069460020FEF764F81FBD00002DE9F041AB
:1032E000984615460F4606460024FFF772F8024638
:1032F000114810230360114806E0395D818101897E
:10330000C907FCD08189641CB442F6DB002107E0C8
:1033100018F8014084810489E407FCD08489491CA1
:10332000A942F5D30448001F03601046FFF748F890
:103330000020BDE8F0810000140801400030014089
:1033400000020400000408000800800000010002E0
:103350000040000000000200040000000400000023
:1033600004000000040000001000000080000000C5
:10337000800000008000000001000020000100200B
:1033800000400080080080000400000010000000E1
:103390000001000000010000000100000001000029
:1033A00020000000000100000100002000010020BA
:1033B00000400080080080000000020006000600B7
:1033C000060006000300060000000D0008000D00C6
:1033D0000E000F0003000700060028001700280059
:1033E000280028000900170000000000000000006D
:1033F0000000000000000000000000F800000000D5
:10340000000000333000000000100C06100C060015
:10341000000000000000000040C07840C07840007C
:10342000043F04043F040400007088FC08300000DE
:10343000001820FF211E0000F008F000E018000036
:1034400000211C031E211E0000F0088870000000EF
:103450001E2123241927211010160E000000000041
:103460000000000000000000000000E0180402005E
:10347000000000071820400000020418E0000000CF
:103480000040201807000000404080F080404000CD
:103490000202010F01020200000000F00000000023
:1034A0000101011F010101000000000000000000F7
:1034B00080B070000000000000000000000000006C
:1034C00000010101010101010000000000000000F5
:1034D0000030300000000000000000008060180490
:1034E000006018060100000000E010080810E0006D
:1034F000000F102020100F00001010F80000000036
:103500000020203F2020000000700808088870007C
:1035100000302824222130000030088888483000FC
:103520000018202020110E000000C02010F800001C
:1035300000070424243F240000F8088888080800B5
:103540000019212020110E0000E0108888180000CA
:10355000000F112020110E0000380808C83808009C
:103560000000003F0000000000708808088870001C
:10357000001C222121221C0000E010080810E0009D
:103580000000312222110F00000000C0C000000026
:10359000000000303000000000000080000000004B
:1035A0000000806000000000000080402010080043
:1035B000000102040810200040404040404040000C
:1035C00004040404040404000008102040800000E7
:1035D0000020100804020100007048080808F000EC
:1035E0000000003036010000C030C828E810E000BC
:1035F0000718272423140B000000C038E000000047
:10360000203C23020227382008F8888888700000B0
:10361000203F202020110E00C03008080808380084
:10362000071820202010080008F808080810E000FB
:10363000203F202020100F0008F88888E80810009C
:10364000203F20202320180008F88888E808100070
:10365000203F200003000000C030080808380000A8
:1036600007182020221E020008F808000008F808A9
:10367000203F210101213F20000808F80808000030
:103680000020203F2020000000000808F808080063
:10369000C08080807F00000008F888C028180800DB
:1036A000203F20012638200008F808000000000014
:1036B000203F20202020300008F8F800F8F808000B
:1036C000203F003F003F200008F830C00008F80805
:1036D000203F200007183F00E01008080810E00015
:1036E0000F10202020100F0008F808080808F0002C
:1036F000203F210101010000E01008080810E0004F
:103700000F18242438504F0008F8888888887000E3
:10371000203F2000030C3020007088080808380083
:103720000038202121221C00180808F80808180079
:103730000000203F2000000008F808000008F808FA
:10374000001F202020201F000878880000C83808AB
:10375000000007380E010000F80800F80008F80023
:10376000033C0700073C03000818688080681808BD
:1037700020302C03032C30200838C800C83808003B
:103780000000203F2000000010080808C83808008A
:103790002038262120201800000000FE020202002E
:1037A0000000007F40404000000C30C000000000DE
:1037B000000000010638C00000020202FE00000006
:1037C000004040407F0000000000040202020400AC
:1037D00000000000000000000000000000000000E9
:1037E00080808080808080800002020400000000D1
:1037F00000000000000000000000808080800000C9
:103800000019242222223F2008F8008080000000B6
:10381000003F112020110E00000000808080000079
:10382000000E112020201100000000808088F80088
:10383000000E112020103F200000808080800000BA
:10384000001F222222221300008080F0888888181E
:103850000020203F20200000000080808080800029
:10386000006B94949493600008F8008080800000BE
:10387000203F210000203F20008098980000000099
:103880000020203F202000000000008098980000C9
:1038900000C08080807F000008F8000080808000E9
:1038A000203F24022D302000000808F8000000000E
:1038B0000020203F202000008080808080808000C9
:1038C000203F20003F20003F80800080808000005B
:1038D000203F210000203F200000808080800000E9
:1038E000001F202020201F0080800080800000001A
:1038F00080FFA12020110E00000000808080800049
:10390000000E112020A0FF80808080008080800039
:1039100020203F2120000100000080808080800066
:103920000033242424241900008080E080800000DB
:103930000000001F20200000808000000080800028
:10394000001F202020103F20808080000080808089
:1039500000010E3008060100808000800080808019
:103960000F300C030C300F0000808000808080003E
:103970000020312E0E312000808080000080808069
:1039800080818E7018060100008080808080800019
:103990000021302C2221300000000000807C020237
:1039A00000000000003F404000000000FF00000059
:1039B00000000000FF0000000002027C8000000008
:1039C0000040403F00000000000601010202040424
:1039D00000000000000000000000010203040005D8
:1039E000405C0000A05C0400C06C0800805C040027
:1039F000E03F1E00E07D1E00070400091E08054090
:103A00000826091040085608054008261D0400082D
:103A1000BE1D040008BED8BC07A9022570889B887B
:103A2000401008000A001600010006000100020014
:103A300087008D002D001A3152001A339A001A3572
:103A40001D011A376B003B31BE003B335E013B3535
:103A500096023B37000099599959EB518F421E4508
:103A6000142E0080EB51F5283333E13A703DE13AF2
:103A7000C235852BC2353333C235C235AE47E13A44
:103A80005138A33051380000A83A00080000002047
:103A900008030000A4080008CC3B0008080300202D
:103AA000B0070000881900080112032CA04014057B
:103AB00001241509090102253801418857DE5741C3
:103AC0005645AA790F5A210CBF5645574110021B83
:103AD000E2237918AAE00DAAE10DAAE20DAAE30DEE
:103AE00032E445020406082D0102030404350607EA
:103AF000080984A24A04791614380140124412407D
:103B00001A0808A9041A10049A1C046914DA20047B
:103B10004A140852011BF010012AFF050215F01B80
:103B20000F04012AFF0502130F18094040405F559A
:103B3000555575041A5F0C091121080C11200F0945
:103B40004989790909090F201F112FFE02424ACA2B
:103B50004A0304134202FE000E14FF40504C43403F
:103B6000404F50505C40FF1BF888012AFF050215AA
:103B7000F81B1F08012A7F200B109F80E23B8082E8
:103B800001000916E2A2928A868280800418408091
:103B90007F172424A4FEA3221B22CCAA01141508FB
:103BA0000601FF2B0104010511FF02020258081053
:103BB0001010FF109008C3021108080F140444826B
:0C3BC0007F01808040432C10284681A02B
:0400000508000131BD
:00000001FF
